:1000000076C0DFC18FC08EC08DC08CC08BC08AC04F
:1000100089C088C087C086C085C084C083C082C0B4
:1000200081C080C07FC00902220001010080320926
:100030000400000103000000092101010001222C3D
:10004000000705810308000A1201100100000008E2
:10005000C016DC27010001020301180367006100DC
:100060006D0065007000610064003200750073006F
:100070006200260376006B002E0063006F006D00A7
:100080002F00670061006D00650070006100640072
:100090003200750073006200260376006B002E00AC
:1000A00063006F006D002F00670061006D00650048
:1000B0007000610064003200750073006200040388
:1000C000090405010905A1010901A1008501093003
:1000D00009311581257F750895028102C00509192E
:1000E00001290815002501750195088102C0112418
:1000F0001FBECFE5D4E0DEBFCDBF10E0A0E6B0E08C
:10010000E0E8F8E002C005900D92A236B107D9F7F9
:1001100020E0A2E6B0E001C01D92A73AB207E1F7E5
:100120009BD3ACC36DCFCF93C62F2091760024FF15
:1001300007C03091770028E823272093770003C079
:100140002AE520937600DC01E8E7F0E09C2F9E0F83
:100150008D918193892F8E1B1816D4F36C2F88E70D
:1001600090E02BD1CC5FC0937600CF910895CF93D0
:10017000DF9380918700835087FDADC0909184000C
:10018000209183002D3209F0A4C0883009F0A1C06D
:10019000CCE0D0E0C91BD109C557DF4F83EC809379
:1001A0006B008AE5809361001092620088818076FE
:1001B00019F0CE012BD384C09A81109274008981EA
:1001C000811106C01092750024E730E082E074C00F
:1001D000853019F4909388006CC0863009F053C0C4
:1001E0008B81813041F488E490E090938600809385
:1001F000850082E144C0823041F486E290E0909331
:1002000086008093850082E23AC0833019F591110F
:1002100008C08EEB90E0909386008093850084E088
:100220002EC0913019F488E990E004C0923041F476
:1002300082E790E0909386008093850086E21FC05D
:100240009330E1F48AE590E09093860080938500F6
:1002500088E115C0813241F488E390E090938600F4
:100260008093850089E00BC0823241F482EC90E0FB
:1002700090938600809385008CE201C080E090E43A
:10028000909362001DC0883069F0893019F4909312
:100290008A000FC08A3049F08B3059F48BE4809388
:1002A000770007C02AE830E002C024E730E081E0B0
:1002B00003C024E730E080E030938600209385007F
:1002C0009F81911104C09E81981708F4892F809313
:1002D0006000109287008091610084FF3FC0809190
:1002E00060008F3FD9F1C82F893008F0C8E08C1B1F
:1002F0008093600090916B0088E8892780936B0061
:10030000CC2301F1809185009091860030916200AC
:100310002C2F280FACE6B0E0FC0136FF06C034916C
:100320003D9331962E13FBCF04C031913D932E1394
:10033000FCCF01962FEF2C0F820F911D909386001A
:10034000809385006C2F8CE690E037D0CC5FCC306A
:1003500019F08FEF80936000C093610084E190B347
:10036000957031F48150D9F7109288001092820074
:10037000DF91CF91089585B7826085BF8BB7806488
:100380008BBFE6E7F0E08BE481838AE58083089504
:10039000A82FB92F80E090E041E050EA609530E06E
:1003A00009C02D9182279795879510F0842795276E
:1003B000305EC8F36F5FA8F30895EADF8D939D93D5
:1003C0000895CF93CFB7CF93C395809BE9F7809BD8
:1003D00009C0809B07C0809B05C0809B03C0809B99
:1003E00001C0A3C0DF93C0918400DD27C557DF4F54
:1003F000809B02C0DF91EBCF2F930F931F9300B32D
:100400002FEF00FB20F94F933F9310B34FEF0127DD
:1004100000FB21F93BE031C04E7F012F10B321607A
:1004200028C0102F4D7F2260000000B329C04B7FF1
:100430002460012F000010B32BC010B3477F286049
:100440002AC04F7E00B320612CC04F7D10B32062C4
:100450002FC04F7B00B3206432C0422700B34993C2
:100460004FEF0000102710FB20F910B31570C9F1F1
:10047000297F91F2012700FB21F900B3237F89F244
:10048000315058F1102710FB22F910B3277E79F272
:10049000012700FB23F92F7C81F200B3102710FB0A
:1004A00024F92F7971F200C010B3012700FB25F960
:1004B0002F7359F200C000B3102710FB26F9223029
:1004C00040F200C010B3012700FB27F9243028F6C2
:1004D0004F77206810B30000F9CF10E41ABF00274F
:1004E00019C03B503195C31BD04010E41ABF08819E
:1004F000033CF9F00B34E9F0209182001981110FCF
:100500001213EDCF4A81441F093641F10D3211F02B
:10051000013E29F7009389003F914F911F910F9160
:100520002F91DF91CAB7C6FD4FCFCF91CFBFCF91EB
:10053000189520918900222379F3109187001123C7
:1005400069F534306AF1309387002093830010916D
:1005500084003BE0311B3093840022C0009187006F
:100560000130E4F40AE54F7049F43091610034FD44
:1005700019C000936100CBE6D0E018C0309176003E
:1005800034FD10C000937600C7E7D0E00FC0279578
:10059000A8F45150A9F4220F0000F9CF4AE503C096
:1005A00042ED01C0432FC4E1D0E032E011B3156049
:1005B000909A11BB02B320E415E05F93012756E047
:1005C00002BB279520F4515021F4220FF9CF0127C7
:1005D00056E000003B5A02BBD0F2279528F4515058
:1005E00029F4220F0000F9CF012756E0279502BB1E
:1005F00020F4515021F4220FF9CF012756E0299120
:10060000332302BB21F60A7F10918800110FC651D7
:10061000D04002BB11F01093820010E41ABF0160B9
:1006200011B31A7F402F4A7F5F9100C000C002BB08
:1006300011BB42BB71CF88B38FEF88BB17BA95B39C
:1006400085BB14BA82B38A6F82BB8B9A8FE085BD5B
:1006500086E983BD88B7806888BF089508B607FE1D
:10066000C4C088B7806888BF1092A2001092A10011
:100670001092A3009D9903C081E88093A2009C99E9
:1006800003C08FE78093A2009B9903C081E8809309
:10069000A1009A9903C08FE78093A10086B380954B
:1006A0008170B19B02C090E001C092E0892BB29BA7
:1006B00002C090E001C094E0892BB39B02C090E09F
:1006C00001C098E0892BB49B02C030E001C030E14A
:1006D000832BB59B02C020E001C020E2822B999BB6
:1006E00002C090E001C090E4892B989B02C090E08A
:1006F00001C090E8892B8093A300811106C010925D
:100700006600109265001092640090916400B099A8
:100710000CC091110AC020916500309166002F5FD6
:100720003F4F309366002093650020916500309123
:1007300066002032310558F0911109C091E0909384
:10074000640010926600109265008093A60090915C
:100750006400913009F049C090916300923008F430
:1007600044C081FF06C09091A600927089278093B3
:10077000A3008091A30082FF06C09091A600947010
:1007800089278093A3008091A30083FF06C09091E6
:10079000A600987089278093A3008091A30084FF0E
:1007A00006C09091A600907189278093A300809144
:1007B000A30085FF06C09091A600907289278093C0
:1007C000A3008091A30086FF06C09091A6009074BC
:1007D00089278093A3008091A30087FF06C0909192
:1007E000A600907889278093A300089581E08093E4
:1007F0006700A1EAB0E0E8E6F0E083E08E0F9D91AB
:1008000091938E13FCCF87E690E00895FC019081D0
:100810009076903269F48181813051F4E7DFFC01F8
:10082000808190E0909386008093850084E0089515
:1008300080E008958091760084FF0DC0D7DF64E0EA
:1008400072DC809163008F5F843018F480936300C2
:1008500008951092630008958EDD889A2FEB87E249
:1008600099E0215080409040E1F700C00000889856
:10087000E2DE7894F3DEDEDF7ADCFCCFF894FFCFA3
:02088000FF5A1D
:00000001FF
