:1000000076C0E7C18FC08EC08DC08CC08BC08AC047
:1000100089C088C087C086C085C084C083C082C0B4
:1000200081C080C07FC009022200010100A00A092E
:100030000400000103000000092101010001222C3D
:10004000000705810308000A1201100100000008E2
:10005000C016DC27010001020301180367006100DC
:100060006D0065007000610064003200750073006F
:100070006200260376006B002E0063006F006D00A7
:100080002F00670061006D00650070006100640072
:100090003200750073006200260376006B002E00AC
:1000A00063006F006D002F00670061006D00650048
:1000B0007000610064003200750073006200040388
:1000C000090405010905A1010901A1008501093003
:1000D00009311581257F75089502810205091901ED
:1000E000290815002501750195088102C0C0112459
:1000F0001FBECFE5D4E0DEBFCDBF10E0A0E6B0E08C
:10010000E2E1F8E002C005900D92A236B107D9F7FE
:1001100020E0A2E6B0E001C01D92A73AB207E1F7E5
:1001200064D375C36DCFCF93C62F2091750024FF84
:1001300007C03091760028E823272093760003C07B
:100140002AE520937500DC01E7E7F0E09C2F9E0F85
:100150008D918193892F8E1B1816D4F36C2F87E70E
:1001600090E033D1CC5FC0937500CF910895CF93C9
:10017000DF9380918700835087FDADC0909184000C
:10018000209183002D3209F0A4C0883009F0A1C06D
:10019000CCE0D0E0C91BD109C557DF4F83EC809379
:1001A0006A008AE5809361001092820088818076DF
:1001B00019F0CE01F7D284C09A8110927300898120
:1001C000811106C01092740023E730E082E074C011
:1001D000853019F4909388006CC0863009F053C0C4
:1001E0008B81813041F488E490E090938600809385
:1001F000850082E144C0823041F486E290E0909331
:1002000086008093850082E23AC0833019F591110F
:1002100008C08EEB90E0909386008093850084E088
:100220002EC0913019F488E990E004C0923041F476
:1002300082E790E0909386008093850086E21FC05D
:100240009330E1F48AE590E09093860080938500F6
:1002500088E115C0813241F488E390E090938600F4
:100260008093850089E00BC0823241F482EC90E0FB
:1002700090938600809385008CE201C080E090E43A
:10028000909382001DC0883069F0893019F49093F2
:100290008A000FC08A3049F08B3059F48BE4809388
:1002A000760007C02AE830E002C023E730E081E0B2
:1002B00003C023E730E080E0309386002093850080
:1002C0009F81911104C09E81981708F4892F809313
:1002D0006000109287008091610084FF47C0809188
:1002E00060008F3F09F442C0C82F893008F0C8E091
:1002F0008C1B8093600090916A0088E88927809326
:100300006A00CC2339F1809185009091860020917C
:10031000820026FF0BC0ABE6B0E0FC012C2F280FBB
:1003200034913D9331962E13FBCF09C0DC01EBE6EF
:10033000F0E02C2F2E0F3D9131932E13FCCF2FEF99
:100340002C0F30E02F5F3F4F820F931F909386005A
:10035000809385006C2F8BE690E037D0CC5FCC305B
:1003600019F08FEF80936000C093610084E190B337
:10037000957031F48150D9F7109288001092810065
:10038000DF91CF91089585B7826085BF8BB7806478
:100390008BBFE5E7F0E08BE481838AE580830895F5
:1003A000A82FB92F80E090E041E050EA609530E05E
:1003B00009C02D9182279795879510F0842795275E
:1003C000305EC8F36F5FA8F30895EADF8D939D93C5
:1003D0000895CF93CFB7CF93C395809BE9F7809BC8
:1003E00009C0809B07C0809B05C0809B03C0809B89
:1003F00001C0A3C0DF93C0918400DD27C557DF4F44
:10040000809B02C0DF91EBCF2F930F931F9300B31C
:100410002FEF00FB20F94F933F9310B34FEF0127CD
:1004200000FB21F93BE031C04E7F012F10B321606A
:1004300028C0102F4D7F2260000000B329C04B7FE1
:100440002460012F000010B32BC010B3477F286039
:100450002AC04F7E00B320612CC04F7D10B32062B4
:100460002FC04F7B00B3206432C0422700B34993B2
:100470004FEF0000102710FB20F910B31570C9F1E1
:10048000297F91F2012700FB21F900B3237F89F234
:10049000315058F1102710FB22F910B3277E79F262
:1004A000012700FB23F92F7C81F200B3102710FBFA
:1004B00024F92F7971F200C010B3012700FB25F950
:1004C0002F7359F200C000B3102710FB26F9223019
:1004D00040F200C010B3012700FB27F9243028F6B2
:1004E0004F77206810B30000F9CF10E41ABF00273F
:1004F00019C03B503195C31BD04010E41ABF08818E
:10050000033CF9F00B34E9F0209181001981110FBF
:100510001213EDCF4A81441F093641F10D3211F01B
:10052000013E29F7009389003F914F911F910F9150
:100530002F91DF91CAB7C6FD4FCFCF91CFBFCF91DB
:10054000189520918900222379F3109187001123B7
:1005500069F534306AF1309387002093830010915D
:1005600084003BE0311B3093840022C0009187005F
:100570000130E4F40AE54F7049F43091610034FD34
:1005800019C000936100CAE6D0E018C03091750030
:1005900034FD10C000937500C6E7D0E00FC027956A
:1005A000A8F45150A9F4220F0000F9CF4AE503C086
:1005B00042ED01C0432FC4E1D0E032E011B3156039
:1005C000909A11BB02B320E415E05F93012756E037
:1005D00002BB279520F4515021F4220FF9CF0127B7
:1005E00056E000003B5A02BBD0F2279528F4515048
:1005F00029F4220F0000F9CF012756E0279502BB0E
:1006000020F4515021F4220FF9CF012756E029910F
:10061000332302BB21F60A7F10918800110FC651C7
:10062000D04002BB11F01093810010E41ABF0160AA
:1006300011B31A7F402F4A7F5F9100C000C002BBF8
:1006400011BB42BB71CF8FE188BB17BA85BB14BA0F
:1006500082B38A6F82BB81B381BB8FE085BD8DE29F
:1006600083BD83ED84BD88B7806888BF089508B6D0
:1006700007FE87C088B7806888BF83ED84BD10926D
:10068000A2001092A1001092A3009D9903C081E8DE
:100690008093A2009C9903C08FE78093A2009B994E
:1006A00003C081E88093A1009A9903C08FE78093EB
:1006B000A10086B380958170B19B02C090E001C01B
:1006C00092E0892BB29B02C090E001C094E0892B9C
:1006D000B39B02C090E001C098E0892BB49B02C09C
:1006E00030E001C030E1832BB59B02C020E001C0A7
:1006F00020E2822B999B02C090E001C090E4892BFC
:10070000989B02C090E001C090E8892B8093A300E1
:10071000811106C01092650010926400109263006F
:1007200090916300B0990CC091110AC020916400AF
:10073000309165002F5F3F4F309365002093640038
:1007400020916400309165002034310558F09111FA
:1007500009C091E0909363001092650010926400CC
:100760008093A60090916300913059F490916200BB
:10077000923038F09091A60098239E7F892780932D
:10078000A300089581E080936600A1EAB0E0E7E667
:10079000F0E083E08E0F9D9191938E13FCCF86E65F
:1007A00090E00895FC0190819076903251F481811F
:1007B000813039F4E7DF909386008093850084E0F0
:1007C000089580E008958091750084FF0DC0DADF00
:1007D00064E0A9DC809162008F5F843018F480931C
:1007E00062000895109262000895CDDD889A2FEB83
:1007F00087E299E0215080409040E1F700C000007E
:10080000889821DF789433DFDEDFB1DCFCCFF89409
:02081000FFCF18
:02081200FF5A8B
:00000001FF
